{
  "_format": "hh3-artifact-1",
  "contractName": "MockERC20",
  "sourceName": "contracts/MockTokens.sol",
  "abi": [
    {
      "inputs": [
        {
          "internalType": "string",
          "name": "_name",
          "type": "string"
        },
        {
          "internalType": "string",
          "name": "_symbol",
          "type": "string"
        }
      ],
      "stateMutability": "nonpayable",
      "type": "constructor"
    },
    {
      "inputs": [
        {
          "internalType": "address",
          "name": "",
          "type": "address"
        }
      ],
      "name": "balanceOf",
      "outputs": [
        {
          "internalType": "uint256",
          "name": "",
          "type": "uint256"
        }
      ],
      "stateMutability": "view",
      "type": "function"
    },
    {
      "inputs": [],
      "name": "decimals",
      "outputs": [
        {
          "internalType": "uint8",
          "name": "",
          "type": "uint8"
        }
      ],
      "stateMutability": "view",
      "type": "function"
    },
    {
      "inputs": [
        {
          "internalType": "address",
          "name": "to",
          "type": "address"
        },
        {
          "internalType": "uint256",
          "name": "amount",
          "type": "uint256"
        }
      ],
      "name": "mint",
      "outputs": [],
      "stateMutability": "nonpayable",
      "type": "function"
    },
    {
      "inputs": [],
      "name": "name",
      "outputs": [
        {
          "internalType": "string",
          "name": "",
          "type": "string"
        }
      ],
      "stateMutability": "view",
      "type": "function"
    },
    {
      "inputs": [],
      "name": "symbol",
      "outputs": [
        {
          "internalType": "string",
          "name": "",
          "type": "string"
        }
      ],
      "stateMutability": "view",
      "type": "function"
    },
    {
      "inputs": [
        {
          "internalType": "address",
          "name": "to",
          "type": "address"
        },
        {
          "internalType": "uint256",
          "name": "amount",
          "type": "uint256"
        }
      ],
      "name": "transfer",
      "outputs": [
        {
          "internalType": "bool",
          "name": "",
          "type": "bool"
        }
      ],
      "stateMutability": "nonpayable",
      "type": "function"
    }
  ],
  "bytecode": "0x60806040526002805460ff1916601217905534801561001c575f80fd5b5060405161069338038061069383398101604081905261003b9161010f565b5f61004683826101f4565b50600161005382826101f4565b5050506102af565b634e487b7160e01b5f52604160045260245ffd5b5f82601f83011261007e575f80fd5b81516001600160401b03808211156100985761009861005b565b604051601f8301601f19908116603f011681019082821181831017156100c0576100c061005b565b816040528381526020925086838588010111156100db575f80fd5b5f91505b838210156100fc57858201830151818301840152908201906100df565b5f93810190920192909252949350505050565b5f8060408385031215610120575f80fd5b82516001600160401b0380821115610136575f80fd5b6101428683870161006f565b93506020850151915080821115610157575f80fd5b506101648582860161006f565b9150509250929050565b600181811c9082168061018257607f821691505b6020821081036101a057634e487b7160e01b5f52602260045260245ffd5b50919050565b601f8211156101ef575f81815260208120601f850160051c810160208610156101cc5750805b601f850160051c820191505b818110156101eb578281556001016101d8565b5050505b505050565b81516001600160401b0381111561020d5761020d61005b565b6102218161021b845461016e565b846101a6565b602080601f831160018114610254575f841561023d5750858301515b5f19600386901b1c1916600185901b1785556101eb565b5f85815260208120601f198616915b8281101561028257888601518255948401946001909101908401610263565b508582101561029f57878501515f19600388901b60f8161c191681555b5050505050600190811b01905550565b6103d7806102bc5f395ff3fe608060405234801561000f575f80fd5b5060043610610060575f3560e01c806306fdde0314610064578063313ce5671461008257806340c10f19146100a157806370a08231146100b657806395d89b41146100e3578063a9059cbb146100eb575b5f80fd5b61006c61010e565b6040516100799190610281565b60405180910390f35b60025461008f9060ff1681565b60405160ff9091168152602001610079565b6100b46100af3660046102e7565b610199565b005b6100d56100c436600461030f565b60036020525f908152604090205481565b604051908152602001610079565b61006c6101c9565b6100fe6100f93660046102e7565b6101d6565b6040519015158152602001610079565b5f805461011a9061032f565b80601f01602080910402602001604051908101604052809291908181526020018280546101469061032f565b80156101915780601f1061016857610100808354040283529160200191610191565b820191905f5260205f20905b81548152906001019060200180831161017457829003601f168201915b505050505081565b6001600160a01b0382165f90815260036020526040812080548392906101c090849061037b565b90915550505050565b6001805461011a9061032f565b335f908152600360205260408120548211156102275760405162461bcd60e51b815260206004820152600c60248201526b1a5b9cdd59999a58da595b9d60a21b604482015260640160405180910390fd5b335f908152600360205260408120805484929061024590849061038e565b90915550506001600160a01b0383165f908152600360205260408120805484929061027190849061037b565b9091555060019150505b92915050565b5f6020808352835180828501525f5b818110156102ac57858101830151858201604001528201610290565b505f604082860101526040601f19601f8301168501019250505092915050565b80356001600160a01b03811681146102e2575f80fd5b919050565b5f80604083850312156102f8575f80fd5b610301836102cc565b946020939093013593505050565b5f6020828403121561031f575f80fd5b610328826102cc565b9392505050565b600181811c9082168061034357607f821691505b60208210810361036157634e487b7160e01b5f52602260045260245ffd5b50919050565b634e487b7160e01b5f52601160045260245ffd5b8082018082111561027b5761027b610367565b8181038181111561027b5761027b61036756fea26469706673582212202e86958814f3f8967ebe6e0539b9bd9386df4425958b81a7f65413dac7b3427664736f6c63430008140033",
  "linkReferences": {},
  "deployedLinkReferences": {},
  "immutableReferences": {},
  "inputSourceName": "project/contracts/MockTokens.sol",
  "buildInfoId": "solc-0_8_20-1d42726a716f1d5ab7e016ce4ffa61e1ff724fe0"
}