{
  "_format": "hh3-artifact-1",
  "contractName": "SalvageBatchWrapper",
  "sourceName": "contracts/SalvageBatchWrapper.sol",
  "abi": [
    {
      "inputs": [
        {
          "internalType": "address",
          "name": "_router",
          "type": "address"
        }
      ],
      "stateMutability": "nonpayable",
      "type": "constructor"
    },
    {
      "inputs": [],
      "name": "BatchTooLarge",
      "type": "error"
    },
    {
      "inputs": [],
      "name": "EmptyBatch",
      "type": "error"
    },
    {
      "inputs": [],
      "name": "LengthMismatch",
      "type": "error"
    },
    {
      "anonymous": false,
      "inputs": [
        {
          "indexed": false,
          "internalType": "uint256",
          "name": "count",
          "type": "uint256"
        },
        {
          "indexed": false,
          "internalType": "uint256",
          "name": "succeeded",
          "type": "uint256"
        }
      ],
      "name": "BatchRegistered",
      "type": "event"
    },
    {
      "anonymous": false,
      "inputs": [
        {
          "indexed": false,
          "internalType": "uint256",
          "name": "count",
          "type": "uint256"
        },
        {
          "indexed": false,
          "internalType": "uint256",
          "name": "succeeded",
          "type": "uint256"
        }
      ],
      "name": "BatchSettled",
      "type": "event"
    },
    {
      "inputs": [],
      "name": "MAX_BATCH_SIZE",
      "outputs": [
        {
          "internalType": "uint256",
          "name": "",
          "type": "uint256"
        }
      ],
      "stateMutability": "view",
      "type": "function"
    },
    {
      "inputs": [
        {
          "internalType": "address[]",
          "name": "tokens",
          "type": "address[]"
        },
        {
          "internalType": "address",
          "name": "victim",
          "type": "address"
        },
        {
          "internalType": "address",
          "name": "finder",
          "type": "address"
        },
        {
          "internalType": "bytes32",
          "name": "lossTxHash",
          "type": "bytes32"
        },
        {
          "internalType": "uint256",
          "name": "deadline",
          "type": "uint256"
        },
        {
          "internalType": "bytes[]",
          "name": "signatures",
          "type": "bytes[]"
        }
      ],
      "name": "batchRegisterClaims",
      "outputs": [
        {
          "internalType": "bool[]",
          "name": "succeeded",
          "type": "bool[]"
        },
        {
          "internalType": "bytes32[]",
          "name": "claimIds",
          "type": "bytes32[]"
        }
      ],
      "stateMutability": "nonpayable",
      "type": "function"
    },
    {
      "inputs": [
        {
          "internalType": "bytes32[]",
          "name": "claimIds",
          "type": "bytes32[]"
        }
      ],
      "name": "batchSettle",
      "outputs": [
        {
          "internalType": "bool[]",
          "name": "succeeded",
          "type": "bool[]"
        }
      ],
      "stateMutability": "nonpayable",
      "type": "function"
    },
    {
      "inputs": [],
      "name": "router",
      "outputs": [
        {
          "internalType": "contract ISalvageRecoveryRouter",
          "name": "",
          "type": "address"
        }
      ],
      "stateMutability": "view",
      "type": "function"
    }
  ],
  "bytecode": "0x60a060405234801561000f575f80fd5b5060405161095038038061095083398101604081905261002e91610087565b6001600160a01b0381166100765760405162461bcd60e51b815260206004820152600b60248201526a3d32b937903937baba32b960a91b604482015260640160405180910390fd5b6001600160a01b03166080526100b4565b5f60208284031215610097575f80fd5b81516001600160a01b03811681146100ad575f80fd5b9392505050565b6080516108776100d95f395f818160b301528181610185015261039601526108775ff3fe608060405234801561000f575f80fd5b506004361061004a575f3560e01c806360a30c4e1461004e5780639a77f6bd14610077578063cfdbf25414610098578063f887ea40146100ae575b5f80fd5b61006161005c366004610562565b6100ed565b60405161006e91906105dc565b60405180910390f35b61008a61008536600461060c565b610295565b60405161006e9291906106b1565b6100a0601481565b60405190815260200161006e565b6100d57f000000000000000000000000000000000000000000000000000000000000000081565b6040516001600160a01b03909116815260200161006e565b6060815f8190036101115760405163c2e5347d60e01b815260040160405180910390fd5b6014811115610133576040516305beb17160e11b815260040160405180910390fd5b8067ffffffffffffffff81111561014c5761014c610706565b604051908082528060200260200182016040528015610175578160200160208202803683370190505b5091505f805b82811015610253577f00000000000000000000000000000000000000000000000000000000000000006001600160a01b031663987757dd8787848181106101c4576101c461071a565b905060200201356040518263ffffffff1660e01b81526004016101e991815260200190565b5f604051808303815f87803b158015610200575f80fd5b505af1925050508015610211575060015b1561024157600184828151811061022a5761022a61071a565b911515602092830291909101909101526001909101905b8061024b8161072e565b91505061017b565b5060408051838152602081018390527f0a0af9013a8d9968e4532086fbc7137cf11ee8b8f9d57c8e5e89589b41673908910160405180910390a1505092915050565b606080885f8190036102ba5760405163c2e5347d60e01b815260040160405180910390fd5b60148111156102dc576040516305beb17160e11b815260040160405180910390fd5b8381146102ff576040516001621398b960e31b0319815260040160405180910390fd5b8067ffffffffffffffff81111561031857610318610706565b604051908082528060200260200182016040528015610341578160200160208202803683370190505b5092508067ffffffffffffffff81111561035d5761035d610706565b604051908082528060200260200182016040528015610386578160200160208202803683370190505b5091505f805b828110156104d1577f00000000000000000000000000000000000000000000000000000000000000006001600160a01b031663e3f9a8cc8e8e848181106103d5576103d561071a565b90506020020160208101906103ea9190610752565b8d8d8d8d8d8d898181106104005761040061071a565b9050602002810190610412919061076d565b6040518863ffffffff1660e01b815260040161043497969594939291906107b0565b60408051808303815f875af192505050801561046d575060408051601f3d908101601f1916820190925261046a91810190610813565b60015b156104bf5760018784815181106104865761048661071a565b602002602001019015159081151581525050818684815181106104ab576104ab61071a565b602090810291909101015250506001909101905b806104c98161072e565b91505061038c565b5060408051838152602081018390527f5147e56f82dd95b39d986545d47fcc2f02ebe9938671c93e73ec1f28404cef7d910160405180910390a150509850989650505050505050565b5f8083601f84011261052a575f80fd5b50813567ffffffffffffffff811115610541575f80fd5b6020830191508360208260051b850101111561055b575f80fd5b9250929050565b5f8060208385031215610573575f80fd5b823567ffffffffffffffff811115610589575f80fd5b6105958582860161051a565b90969095509350505050565b5f8151808452602080850194508084015f5b838110156105d15781511515875295820195908201906001016105b3565b509495945050505050565b602081525f6105ee60208301846105a1565b9392505050565b6001600160a01b0381168114610609575f80fd5b50565b5f805f805f805f8060c0898b031215610623575f80fd5b883567ffffffffffffffff8082111561063a575f80fd5b6106468c838d0161051a565b909a50985060208b0135915061065b826105f5565b90965060408a01359061066d826105f5565b90955060608a0135945060808a0135935060a08a01359080821115610690575f80fd5b5061069d8b828c0161051a565b999c989b5096995094979396929594505050565b604081525f6106c360408301856105a1565b8281036020848101919091528451808352858201928201905f5b818110156106f9578451835293830193918301916001016106dd565b5090979650505050505050565b634e487b7160e01b5f52604160045260245ffd5b634e487b7160e01b5f52603260045260245ffd5b5f6001820161074b57634e487b7160e01b5f52601160045260245ffd5b5060010190565b5f60208284031215610762575f80fd5b81356105ee816105f5565b5f808335601e19843603018112610782575f80fd5b83018035915067ffffffffffffffff82111561079c575f80fd5b60200191503681900382131561055b575f80fd5b6001600160a01b038881168252878116602083015286166040820152606081018590526080810184905260c060a0820181905281018290525f828460e08401375f60e0848401015260e0601f19601f850116830101905098975050505050505050565b5f8060408385031215610824575f80fd5b825191506020830151610836816105f5565b80915050925092905056fea26469706673582212203b1f3579aa55128666ac6827a417ebd0f1f3990a5bb1c658cdd3a10f8189c5c064736f6c63430008140033",
  "linkReferences": {},
  "deployedLinkReferences": {},
  "immutableReferences": {
    "30": [
      {
        "length": 32,
        "start": 179
      },
      {
        "length": 32,
        "start": 389
      },
      {
        "length": 32,
        "start": 918
      }
    ]
  },
  "inputSourceName": "project/contracts/SalvageBatchWrapper.sol",
  "buildInfoId": "solc-0_8_20-55fbcdcd8478f61c2a611be2ed14e77f6cc0fdb2"
}