{
  "_format": "hh3-artifact-1",
  "contractName": "SalvageRecoveryRouter",
  "sourceName": "contracts/SalvageRecoveryRouter.sol",
  "abi": [
    {
      "inputs": [
        {
          "internalType": "address",
          "name": "_protocolFeeRecipient",
          "type": "address"
        }
      ],
      "stateMutability": "nonpayable",
      "type": "constructor"
    },
    {
      "anonymous": false,
      "inputs": [
        {
          "indexed": true,
          "internalType": "bytes32",
          "name": "claimId",
          "type": "bytes32"
        },
        {
          "indexed": true,
          "internalType": "address",
          "name": "token",
          "type": "address"
        },
        {
          "indexed": true,
          "internalType": "address",
          "name": "victim",
          "type": "address"
        },
        {
          "indexed": false,
          "internalType": "address",
          "name": "finder",
          "type": "address"
        },
        {
          "indexed": false,
          "internalType": "bytes32",
          "name": "lossTxHash",
          "type": "bytes32"
        },
        {
          "indexed": false,
          "internalType": "address",
          "name": "receiver",
          "type": "address"
        }
      ],
      "name": "ClaimRegistered",
      "type": "event"
    },
    {
      "anonymous": false,
      "inputs": [
        {
          "indexed": true,
          "internalType": "bytes32",
          "name": "claimId",
          "type": "bytes32"
        },
        {
          "indexed": false,
          "internalType": "uint256",
          "name": "amount",
          "type": "uint256"
        },
        {
          "indexed": false,
          "internalType": "uint256",
          "name": "victimPayout",
          "type": "uint256"
        },
        {
          "indexed": false,
          "internalType": "uint256",
          "name": "finderPayout",
          "type": "uint256"
        },
        {
          "indexed": false,
          "internalType": "uint256",
          "name": "protocolPayout",
          "type": "uint256"
        }
      ],
      "name": "ClaimSettled",
      "type": "event"
    },
    {
      "anonymous": false,
      "inputs": [
        {
          "indexed": true,
          "internalType": "address",
          "name": "previous",
          "type": "address"
        },
        {
          "indexed": true,
          "internalType": "address",
          "name": "pending",
          "type": "address"
        }
      ],
      "name": "OwnershipTransferStarted",
      "type": "event"
    },
    {
      "anonymous": false,
      "inputs": [
        {
          "indexed": true,
          "internalType": "address",
          "name": "previous",
          "type": "address"
        },
        {
          "indexed": true,
          "internalType": "address",
          "name": "current",
          "type": "address"
        }
      ],
      "name": "OwnershipTransferred",
      "type": "event"
    },
    {
      "anonymous": false,
      "inputs": [
        {
          "indexed": true,
          "internalType": "address",
          "name": "previous",
          "type": "address"
        },
        {
          "indexed": true,
          "internalType": "address",
          "name": "current",
          "type": "address"
        }
      ],
      "name": "ProtocolFeeRecipientChanged",
      "type": "event"
    },
    {
      "inputs": [],
      "name": "BPS_DENOMINATOR",
      "outputs": [
        {
          "internalType": "uint256",
          "name": "",
          "type": "uint256"
        }
      ],
      "stateMutability": "view",
      "type": "function"
    },
    {
      "inputs": [],
      "name": "DOMAIN_SEPARATOR",
      "outputs": [
        {
          "internalType": "bytes32",
          "name": "",
          "type": "bytes32"
        }
      ],
      "stateMutability": "view",
      "type": "function"
    },
    {
      "inputs": [],
      "name": "FINDER_FEE_BPS",
      "outputs": [
        {
          "internalType": "uint256",
          "name": "",
          "type": "uint256"
        }
      ],
      "stateMutability": "view",
      "type": "function"
    },
    {
      "inputs": [],
      "name": "FINDER_PROTOCOL_BPS",
      "outputs": [
        {
          "internalType": "uint256",
          "name": "",
          "type": "uint256"
        }
      ],
      "stateMutability": "view",
      "type": "function"
    },
    {
      "inputs": [],
      "name": "VICTIM_PROTOCOL_BPS",
      "outputs": [
        {
          "internalType": "uint256",
          "name": "",
          "type": "uint256"
        }
      ],
      "stateMutability": "view",
      "type": "function"
    },
    {
      "inputs": [],
      "name": "acceptOwnership",
      "outputs": [],
      "stateMutability": "nonpayable",
      "type": "function"
    },
    {
      "inputs": [
        {
          "internalType": "bytes32",
          "name": "claimId",
          "type": "bytes32"
        }
      ],
      "name": "claimReceiver",
      "outputs": [
        {
          "internalType": "address",
          "name": "",
          "type": "address"
        }
      ],
      "stateMutability": "view",
      "type": "function"
    },
    {
      "inputs": [
        {
          "internalType": "bytes32",
          "name": "",
          "type": "bytes32"
        }
      ],
      "name": "claims",
      "outputs": [
        {
          "internalType": "address",
          "name": "token",
          "type": "address"
        },
        {
          "internalType": "address",
          "name": "victim",
          "type": "address"
        },
        {
          "internalType": "address",
          "name": "finder",
          "type": "address"
        },
        {
          "internalType": "bytes32",
          "name": "lossTxHash",
          "type": "bytes32"
        },
        {
          "internalType": "uint64",
          "name": "createdAt",
          "type": "uint64"
        },
        {
          "internalType": "uint256",
          "name": "totalSettled",
          "type": "uint256"
        }
      ],
      "stateMutability": "view",
      "type": "function"
    },
    {
      "inputs": [],
      "name": "owner",
      "outputs": [
        {
          "internalType": "address",
          "name": "",
          "type": "address"
        }
      ],
      "stateMutability": "view",
      "type": "function"
    },
    {
      "inputs": [],
      "name": "pendingOwner",
      "outputs": [
        {
          "internalType": "address",
          "name": "",
          "type": "address"
        }
      ],
      "stateMutability": "view",
      "type": "function"
    },
    {
      "inputs": [],
      "name": "protocolFeeRecipient",
      "outputs": [
        {
          "internalType": "address",
          "name": "",
          "type": "address"
        }
      ],
      "stateMutability": "view",
      "type": "function"
    },
    {
      "inputs": [
        {
          "internalType": "address",
          "name": "token",
          "type": "address"
        },
        {
          "internalType": "address",
          "name": "victim",
          "type": "address"
        },
        {
          "internalType": "address",
          "name": "finder",
          "type": "address"
        },
        {
          "internalType": "bytes32",
          "name": "lossTxHash",
          "type": "bytes32"
        },
        {
          "internalType": "uint256",
          "name": "deadline",
          "type": "uint256"
        },
        {
          "internalType": "bytes",
          "name": "victimSignature",
          "type": "bytes"
        }
      ],
      "name": "registerClaim",
      "outputs": [
        {
          "internalType": "bytes32",
          "name": "claimId",
          "type": "bytes32"
        },
        {
          "internalType": "address",
          "name": "receiver",
          "type": "address"
        }
      ],
      "stateMutability": "nonpayable",
      "type": "function"
    },
    {
      "inputs": [
        {
          "internalType": "address",
          "name": "recipient",
          "type": "address"
        }
      ],
      "name": "setProtocolFeeRecipient",
      "outputs": [],
      "stateMutability": "nonpayable",
      "type": "function"
    },
    {
      "inputs": [
        {
          "internalType": "bytes32",
          "name": "claimId",
          "type": "bytes32"
        }
      ],
      "name": "settle",
      "outputs": [],
      "stateMutability": "nonpayable",
      "type": "function"
    },
    {
      "inputs": [
        {
          "internalType": "address",
          "name": "newOwner",
          "type": "address"
        }
      ],
      "name": "transferOwnership",
      "outputs": [],
      "stateMutability": "nonpayable",
      "type": "function"
    }
  ],
  "bytecode": "0x60a06040526001600455348015610014575f80fd5b506040516118d93803806118d983398101604081905261003391610196565b6001600160a01b03811661007e5760405162461bcd60e51b815260206004820152600e60248201526d1e995c9bc81c9958da5c1a595b9d60921b604482015260640160405180910390fd5b5f8054336001600160a01b031991821617909155600280549091166001600160a01b038316179055604080518082018252601581527f53616c766167655265636f76657279526f7574657200000000000000000000006020918201528151808301835260018152603160f81b9082015281517f8b73c3c69bb8fe3d512ecc4cf759cc79239f7b179b0ffacaa9a75d522b39400f918101919091527fd936df0c375e793f5add8bdf124c53a5a1ce261814e23bc5756a08796877c9c2918101919091527fc89efdaa54c0f20c7adf612882df0950f5a951637e0307cdcb4c672f298b8bc660608201524660808201523060a082015260c00160408051601f198184030181529190528051602090910120608052506101c3565b5f602082840312156101a6575f80fd5b81516001600160a01b03811681146101bc575f80fd5b9392505050565b6080516116f86101e15f395f818160f9015261095f01526116f85ff3fe608060405234801561000f575f80fd5b50600436106100f0575f3560e01c8063e1a4521811610093578063e86b680f11610063578063e86b680f146101f9578063edc08fe01461020c578063eff0f59214610215578063f2fde38b146102bb575f80fd5b8063e1a452181461019a578063e30c3978146101a3578063e3f9a8cc146101b6578063e521cb92146101e6575f80fd5b806379ba5097116100ce57806379ba5097146101625780638da5cb5b1461016c578063987757dd1461017e578063e0ca57f114610191575f80fd5b80633644e515146100f457806349f627cf1461012e57806364df049e14610137575b5f80fd5b61011b7f000000000000000000000000000000000000000000000000000000000000000081565b6040519081526020015b60405180910390f35b61011b6101f481565b60025461014a906001600160a01b031681565b6040516001600160a01b039091168152602001610125565b61016a6102ce565b005b5f5461014a906001600160a01b031681565b61016a61018c3660046110e6565b610383565b61011b6102bc81565b61011b61271081565b60015461014a906001600160a01b031681565b6101c96101c4366004611118565b6107bc565b604080519283526001600160a01b03909116602083015201610125565b61016a6101f43660046111c7565b610bed565b61014a6102073660046110e6565b610cd4565b61011b61012c81565b6102736102233660046110e6565b600360208190525f91825260409091208054600182015460028301549383015460048401546005909401546001600160a01b0393841695928416949290931692909167ffffffffffffffff169086565b604080516001600160a01b03978816815295871660208701529390951692840192909252606083015267ffffffffffffffff16608082015260a081019190915260c001610125565b61016a6102c93660046111c7565b610d58565b6001546001600160a01b031633146103215760405162461bcd60e51b81526020600482015260116024820152703737ba103832b73234b7339037bbb732b960791b60448201526064015b60405180910390fd5b6001545f80546040516001600160a01b0393841693909116917f8be0079c531659141344cd1fd0a4f28419497f9722a3daafe3b4186f6b6457e091a3600180545f80546001600160a01b03199081166001600160a01b03841617909155169055565b6004546001146103c25760405162461bcd60e51b815260206004820152600a6024820152697265656e7472616e637960b01b6044820152606401610318565b60026004555f81815260036020526040902060018101546001600160a01b031661041e5760405162461bcd60e51b815260206004820152600d60248201526c756e6b6e6f776e20636c61696d60981b6044820152606401610318565b5f61042883610cd4565b90505f816001600160a01b03163b5f036104c25783604051610449906110d9565b8190604051809103905ff5905080158015610466573d5f803e3d5ffd5b509050816001600160a01b0316816001600160a01b0316146104bd5760405162461bcd60e51b815260206004820152601060248201526f0c6e4cac2e8ca6440dad2e6dac2e8c6d60831b6044820152606401610318565b6104c5565b50805b82546040516370a0823160e01b81523060048201525f916001600160a01b0316906370a0823190602401602060405180830381865afa15801561050a573d5f803e3d5ffd5b505050506040513d601f19601f8201168201806040525081019061052e91906111e7565b845460405162b40d3160e11b81526001600160a01b0391821660048201529192508316906301681a62906024016020604051808303815f875af1158015610577573d5f803e3d5ffd5b505050506040513d601f19601f8201168201806040525081019061059b91906111e7565b5083546040516370a0823160e01b81523060048201525f9183916001600160a01b03909116906370a0823190602401602060405180830381865afa1580156105e5573d5f803e3d5ffd5b505050506040513d601f19601f8201168201806040525081019061060991906111e7565b6106139190611212565b90505f81116106585760405162461bcd60e51b81526020600482015260116024820152706e6f7468696e6720746f20736574746c6560781b6044820152606401610318565b60028501545f906001600160a01b0316156106755761012c610679565b6101f45b90505f612710610689838561122b565b6106939190611242565b60028801549091505f906001600160a01b0316156106c9576127106106ba6102bc8661122b565b6106c49190611242565b6106cb565b5f5b90505f816106d98487611212565b6106e39190611212565b905084896005015f8282546106f89190611261565b9091555050885460018a015461071b916001600160a01b03908116911683610ded565b811561073f57885460028a015461073f916001600160a01b03908116911684610ded565b8215610761578854600254610761916001600160a01b03908116911685610ded565b6040805186815260208101839052908101839052606081018490528a907fdbe946fe480a57932e3352a4bc553e54481b577325bc056118cdf1617bb0d13f9060800160405180910390a2505060016004555050505050505050565b5f806001600160a01b0389166108015760405162461bcd60e51b815260206004820152600a6024820152693d32b937903a37b5b2b760b11b6044820152606401610318565b6001600160a01b0388166108455760405162461bcd60e51b815260206004820152600b60248201526a7a65726f2076696374696d60a81b6044820152606401610318565b876001600160a01b0316876001600160a01b0316036108995760405162461bcd60e51b815260206004820152601060248201526f66696e6465722069732076696374696d60801b6044820152606401610318565b844211156108dd5760405162461bcd60e51b81526020600482015260116024820152701cda59db985d1d5c9948195e1c1a5c9959607a1b6044820152606401610318565b604080517fad3e7266f4d122fe063b5b03eaf6dc5d8b94910907ce879f72cd2609e62fdb446020808301919091526001600160a01b038c8116838501528b811660608401528a16608083015260a0820189905260c08083018990528351808403909101815260e08301909352825192019190912061190160f01b6101008301527f00000000000000000000000000000000000000000000000000000000000000006101028301526101228201525f9061014201604051602081830303815290604052805190602001209050886001600160a01b03166109bd828787610ef5565b6001600160a01b031614610a075760405162461bcd60e51b8152602060048201526011602482015270696e76616c6964207369676e617475726560781b6044820152606401610318565b604080516001600160a01b03808d166020830152808c169282019290925290891660608201526080810188905260a00160408051601f1981840301815291815281516020928301205f81815260039093529120600101549093506001600160a01b031615610aa65760405162461bcd60e51b815260206004820152600c60248201526b636c61696d2065786973747360a01b6044820152606401610318565b6040805160c0810182526001600160a01b038c811682528b811660208084019182528c8316848601908152606085018d81524267ffffffffffffffff908116608088019081525f60a089018181528d8252600396879052999020975188546001600160a01b03199081169189169190911789559551600189018054881691891691909117905592516002880180549096169616959095179093559151908401555160048301805467ffffffffffffffff1916919092161790559051600590910155610b7083610cd4565b9150886001600160a01b03168a6001600160a01b0316847f08e20e43bddded8b7985647ba43dd8fdd00ebdc7a2c90382c89e7cfa9cf22d7e8b8b87604051610bd8939291906001600160a01b0393841681526020810192909252909116604082015260600190565b60405180910390a45097509795505050505050565b5f546001600160a01b03163314610c325760405162461bcd60e51b81526020600482015260096024820152683737ba1037bbb732b960b91b6044820152606401610318565b6001600160a01b038116610c795760405162461bcd60e51b815260206004820152600e60248201526d1e995c9bc81c9958da5c1a595b9d60921b6044820152606401610318565b6002546040516001600160a01b038084169216907f91e1f7681cd20e140c1b9ca733d5112019e41d298b69cd2fcf1f28db37f16dad905f90a3600280546001600160a01b0319166001600160a01b0392909216919091179055565b5f8060405180602001610ce6906110d9565b601f1982820381018352601f90910116604081815282516020938401206001600160f81b0319848401523060601b6bffffffffffffffffffffffff1916602184015260358301969096526055808301969096528051808303909601865260759091019052835193019290922092915050565b5f546001600160a01b03163314610d9d5760405162461bcd60e51b81526020600482015260096024820152683737ba1037bbb732b960b91b6044820152606401610318565b600180546001600160a01b0319166001600160a01b038381169182179092555f8054604051929316917f38d16b8cac22d99fc7c124b9cd0de2d3fa1faef420bfe791d8c362d765e227009190a350565b604080516001600160a01b038481166024830152604480830185905283518084039091018152606490920183526020820180516001600160e01b031663a9059cbb60e01b17905291515f92839290871691610e489190611274565b5f604051808303815f865af19150503d805f8114610e81576040519150601f19603f3d011682016040523d82523d5f602084013e610e86565b606091505b5091509150818015610eb0575080511580610eb0575080806020019051810190610eb091906112a0565b610eee5760405162461bcd60e51b815260206004820152600f60248201526e1d1c985b9cd9995c8819985a5b1959608a1b6044820152606401610318565b5050505050565b5f60418214610f375760405162461bcd60e51b815260206004820152600e60248201526d0c4c2c840e6d2ce40d8cadccee8d60931b6044820152606401610318565b5f610f4560208285876112bf565b610f4e916112e6565b90505f610f5f6040602086886112bf565b610f68916112e6565b90505f85856040818110610f7e57610f7e611303565b919091013560f81c9150507f7fffffffffffffffffffffffffffffff5d576e7357a4501ddfe92f46681b20a0821115610fe15760405162461bcd60e51b8152602060048201526005602482015264626164207360d81b6044820152606401610318565b8060ff16601b1480610ff657508060ff16601c145b61102a5760405162461bcd60e51b81526020600482015260056024820152643130b2103b60d91b6044820152606401610318565b604080515f808252602082018084528a905260ff841692820192909252606081018590526080810184905260019060a0016020604051602081039080840390855afa15801561107b573d5f803e3d5ffd5b5050604051601f1901519150506001600160a01b0381166110ce5760405162461bcd60e51b815260206004820152600d60248201526c626164207369676e617475726560981b6044820152606401610318565b979650505050505050565b6103ab8061131883390190565b5f602082840312156110f6575f80fd5b5035919050565b80356001600160a01b0381168114611113575f80fd5b919050565b5f805f805f805f60c0888a03121561112e575f80fd5b611137886110fd565b9650611145602089016110fd565b9550611153604089016110fd565b9450606088013593506080880135925060a088013567ffffffffffffffff8082111561117d575f80fd5b818a0191508a601f830112611190575f80fd5b81358181111561119e575f80fd5b8b60208285010111156111af575f80fd5b60208301945080935050505092959891949750929550565b5f602082840312156111d7575f80fd5b6111e0826110fd565b9392505050565b5f602082840312156111f7575f80fd5b5051919050565b634e487b7160e01b5f52601160045260245ffd5b81810381811115611225576112256111fe565b92915050565b8082028115828204841417611225576112256111fe565b5f8261125c57634e487b7160e01b5f52601260045260245ffd5b500490565b80820180821115611225576112256111fe565b5f82515f5b818110156112935760208186018101518583015201611279565b505f920191825250919050565b5f602082840312156112b0575f80fd5b815180151581146111e0575f80fd5b5f80858511156112cd575f80fd5b838611156112d9575f80fd5b5050820193919092039150565b80356020831015611225575f19602084900360031b1b1692915050565b634e487b7160e01b5f52603260045260245ffdfe60a060405234801561000f575f80fd5b50336080526080516103736100385f395f818160630152818160a9015261017c01526103735ff3fe608060405234801561000f575f80fd5b5060043610610034575f3560e01c806301681a6214610038578063f887ea401461005e575b5f80fd5b61004b6100463660046102ae565b61009d565b6040519081526020015b60405180910390f35b6100857f000000000000000000000000000000000000000000000000000000000000000081565b6040516001600160a01b039091168152602001610055565b5f336001600160a01b037f000000000000000000000000000000000000000000000000000000000000000016146101085760405162461bcd60e51b815260206004820152600a6024820152693737ba103937baba32b960b11b60448201526064015b60405180910390fd5b6040516370a0823160e01b81523060048201526001600160a01b038316906370a0823190602401602060405180830381865afa15801561014a573d5f803e3d5ffd5b505050506040513d601f19601f8201168201806040525081019061016e91906102db565b905080156101a1576101a1827f0000000000000000000000000000000000000000000000000000000000000000836101a6565b919050565b604080516001600160a01b038481166024830152604480830185905283518084039091018152606490920183526020820180516001600160e01b031663a9059cbb60e01b17905291515f9283929087169161020191906102f2565b5f604051808303815f865af19150503d805f811461023a576040519150601f19603f3d011682016040523d82523d5f602084013e61023f565b606091505b5091509150818015610269575080511580610269575080806020019051810190610269919061031e565b6102a75760405162461bcd60e51b815260206004820152600f60248201526e1d1c985b9cd9995c8819985a5b1959608a1b60448201526064016100ff565b5050505050565b5f602082840312156102be575f80fd5b81356001600160a01b03811681146102d4575f80fd5b9392505050565b5f602082840312156102eb575f80fd5b5051919050565b5f82515f5b8181101561031157602081860181015185830152016102f7565b505f920191825250919050565b5f6020828403121561032e575f80fd5b815180151581146102d4575f80fdfea264697066735822122076f679bb5daaf6ea067f98b02d8607c84fefa9774e672b78a8506a50802afc9f64736f6c63430008140033a264697066735822122050c2ccfff0670e7abf98163e8a1dad68dd9e61ecc5be717ad073b7a4302a0fb564736f6c63430008140033",
  "linkReferences": {},
  "deployedLinkReferences": {},
  "immutableReferences": {
    "140": [
      {
        "length": 32,
        "start": 249
      },
      {
        "length": 32,
        "start": 2399
      }
    ]
  },
  "inputSourceName": "project/contracts/SalvageRecoveryRouter.sol",
  "buildInfoId": "solc-0_8_20-dbe60ec1ebf55bdd41c63d3c1d65fff58d9ee87c"
}